:020000040000FA
:1000000002014743E10175985022320202B0758E19
:1000100008758920758D96758B9675884022E4F554
:02002000A92213
:1000230002000AE709F608DFFA8046E709F208DF6B
:10003300FA803E88828C83E709F0A3DFFA8032E3FB
:1000430009F608DFFA8078E309F208DFFA8070889E
:10005300828C83E309F0A3DFFA806489828A83E0D8
:10006300A3F608DFFA805889828A83E0A3F208DFC7
:10007300FA804C80D280FA80C680D4806980F28076
:1000830033801080A680EA809A80A880DA80E2809C
:10009300CA803389828A83ECFAE493A3C8C582C8F1
:1000A300CCC583CCF0A3C8C582C8CCC583CCDFE95B
:1000B300DEE7800D89828A83E493A3F608DFF9ECF7
:1000C300FAA9F0EDFB2289828A83ECFAE0A3C8C582
:1000D30082C8CCC583CCF0A3C8C582C8CCC583CCA9
:1000E300DFEADEE880DB89828A83E493A3F208DF18
:1000F300F980CC88F0EF60010E4E60C388F0ED24E8
:1001030002B4040050B9F582EB2402B4040050AFEA
:10011300232345822390007673BB010689828A8359
:10012300E0225002E722BBFE02E32289828A83E4B3
:100133009322EF8DF0A4A8F0CF8CF0A428CE8DF0FD
:10014300A42EFE22787FE4F6D8FD75812A02018E63
:10015300020247E493A3F8E493A34003F68001F279
:1001630008DFF48029E493A3F85407240CC8C333AD
:10017300C4540F4420C8834004F456800146F6DF7C
:10018300E4800B01020408102040809002F7E47E13
:10019300019360BCA3FF543F30E509541FFEE49371
:1001A300A360010ECF54C025E060A840B8E493A338
:1001B300FAE493A3F8E493A3C8C582C8CAC583CA63
:1001C300F0A3C8C582C8CAC583CADFE9DEE780BE1B
:1001D30020940C051E0521E52170060520800205EB
:1001E3001FD3E52194D0E5209407402C752A01AF55
:1001F300227E007C017DF4120135E5212430FDE5EA
:100203002034F8FCD3ED9FEC9E400D05227432257B
:1002130028F528E43527F527E51EC394144006E4A2
:10022300F51EF52622E51FC394144017E4F51F7548
:100233002601E52A600DE4F520F521752201F52A52
:100243007529012278087C007D007BFF7A037954AD
:100253007E007F141200F6E4F51CF51D12001E1239
:10026300032F12034B12000E12000312033E12035C
:1002730019E52A702DE52665296027E526B4011FB7
:10028300D3E5289432E52794005008752700752894
:1002930032800C74CE2528F52874FF3527F5278581
:1002A3002629E52560CBE4F525B29580C4C0E0C0DE
:1002B300F0C0D075D000C000C004C005C006C007A0
:1002C300758CA0758A4C1201D30524E524700205B0
:1002D30023C39528E523952740097523007524003A
:1002E300752501D007D006D005D004D000D0D0D0DA
:1002F300F0D0E03201250001260101290102270384
:10030300E8012A00011E00011F0002200000012253
:10031300010223000000438E0443890143E2087570
:100323008CA0758A4C43881043A8022243F22043D1
:10033300A52043D52043E340C29522E4F5A8759751
:10034300DE7597AD75A8902243F21043D510D29471
:100353002268656C6C6F20776F726C64000000001C
:05036300000000000095
:00000001FF
